:1000000060C000006EC000006CC000006AC000004C
:1000100068C0000066C0000064C0000062C000004C
:1000200060C000005EC000005CC000005AC000005C
:1000300058C0000056C0000054C0000052C000006C
:1000400050C000004EC000004CC000004AC000007C
:1000500048C0000046C0000044C0000042C000008C
:1000600040C00000EEC00000C1C000003AC0000067
:1000700038C0000036C0000034C0000032C00000AC
:1000800030C000002EC000002CC000002AC00000BC
:1000900028C0000026C0000024C0000022C00000CC
:1000A00020C000001EC000001CC000004279746522
:1000B0003A200055415254204578616D706C650DB1
:1000C0000A0011241FBECFEFDAE0DEBFCDBF21E072
:1000D000A0E0B1E001C01D92AC36B207E1F710D04C
:1000E000F9C08ECFCF93DF93FC018491EF0121966D
:1000F000882319F049D0FE01F8CFDF91CF91089500
:1001000080E8809361001092610060E076E980E011
:1001100090E012D083EB90E0E5DF5FD08823E9F335
:1001200048D0C82F8CEA90E0DDDF8C2F2DD08DE0F9
:100130002BD08AE029D0F1CF9B01AC01F89460E08C
:1001400079E08DE390E0A4D0DA01C9010197A1091B
:10015000B109B695A795979587959093CD00809313
:10016000CC0082E08093C80088E98093C90086E0D3
:100170008093CA0010924201109243011092000134
:100180001092010178940895909143019F5F9832F5
:1001900008F090E0209142012917E1F3E92FF0E007
:1001A000EC5BFE4F80839093430188EB8093C90002
:1001B000089590910101809100019817D1F39091D9
:1001C00000019F5F903408F090E0E92FF0E0EE5FCF
:1001D000FE4F8081909300010895809101019091DC
:1001E0000001891708F4805C891B08951F920F9203
:1001F0000FB60F9211248F939F93EF93FF939091DB
:10020000430180914201981304C088E98093C9009A
:100210000FC0809142018F5F883208F080E0E82FA4
:10022000F0E0EC5BFE4F90819093CE008093420112
:10023000FF91EF919F918F910F900FBE0F901F90A4
:1002400018951F920F920FB60F9211242F938F9330
:100250009F93EF93FF939091CE00809101018F5F68
:10026000803408F080E020910001821739F0E82FF7
:10027000F0E0EE5FFE4F908380930101FF91EF91DC
:100280009F918F912F910F900FBE0F901F901895F7
:10029000A1E21A2EAA1BBB1BFD010DC0AA1FBB1F8A
:1002A000EE1FFF1FA217B307E407F50720F0A21BFC
:1002B000B30BE40BF50B661F771F881F991F1A9469
:1002C00069F760957095809590959B01AC01BD0193
:0802D000CF010895F894FFCF5F
:00000001FF
